S0150000666E65745F6669726D776172652E73726563A6
S113000000000320E9F301001F83000083A7000020
S11300109FAB00004FB80000ABD40000000000000C
S1130020000000000000000000000000A124010006
S1130030DFD400000000000049240100251F010056
S1130040E1080200E9080200F1080200F9080200D0
S1130050010902000909020011090200190902003C
S113006021090200290902003109020039090200AC
S1130070410902004909020051090200590902001C
S113008061090200D10A0200D10A0200D10A020069
S1130090D10A0200D10A0200D10A0200D10A0200E8
S11300A0690902007109020079090200810902004C
S11300B0890902009109020099090200A1090200BC
S11300C0A9090200B1090200B9090200C10902002C
S11300D0C9090200D1090200D9090200D10A0200AB
S11300E0D10A0200D10A0200D10A0200D10A020098
S11300F0D10A0200D10A0200D10A0200D10A020088
S1130100D10A0200D10A0200D10A0200D10A020077
S1130110D10A0200D10A0200D10A0200D10A020067
S1130120D10A0200D10A0200D10A0200D10A020057
S1130130D10A0200D10A0200D10A0200D10A020047
S1130140D10A0200E1090200E9090200F1090200F2
S1130150F9090200010A0200D10A0200D10A0200D0
S1130160D10A0200D10A0200090A0200110A02009F
S1130170190A0200210A0200290A0200310A0200B7
S1130180390A0200410A0200490A0200510A020027
S1130190590A0200610A0200D10A0200D10A0200CF
S11301A0D10A0200D10A0200D10A0200D10A0200D7
S11301B0D10A0200D10A0200D10A0200D10A0200C7
S11301C0D10A0200D10A0200D10A0200D10A0200B7
S11301D0D10A0200D10A0200D10A0200D10A0200A7
S11303F0D10A0200D10A0200D10A0200FFFFFFFF66
S1130400FFFFFFFFFFFFFFFFFFFFFFFFFEFFFFFFF9
S113041080B50022DFF89019142002F0F4FADFF816
S11304208C190860DFF884090068002802D15FF0A5
S1130430FF301AE00022DFF87819322002F0E3FAE4
S1130440DFF870190860DFF86C09006800280BD128
S1130450DFF85809006802F0EEFA0020DFF84C19C2
S113046008605FF0FF3000E0002002BD80B502F0BC
S11304708BFB0EE0DFF8400900688069D0F8841037
S113048051F00101C0F88410DFF82C09006802F073
S113049069F8DFF8240900680028EBD1DFF80C09BB
S11304A0006802F0C8FADFF80C09006802F0C3FA29
S11304B00020DFF8F81808600020DFF8F81808605A
S11304C002F068FB01BDF8B504000D0016000698A3
S11304D00099C9680C310978C9B209098F0002F082
S11304E0F5FC3900684602F009FD10F1010F71D0E6
S11304F00098426992B24FF4C061009803F036F854
S11305003188012901D1042300E0102316F10802E7
S113051015F1080180B203F047F880B200280ED12B
S11305202100280004F012F8002808D1280003F064
S1130530F2FF002803D100984069B84200D249E094
S11305400098C068008868800098C068801C008893
S113055070802100300003F0F9FF002804D130003E
S113056003F0D9FF002806D02B00320000990020A8
S113057001F05FFF2EE03100280002F0E6F80400ED
S1130580002C1BD0207B042805D11822290014F14B
S1130590540004F08DF800200099486033002A00CC
S11305A00099200000F00CFC0400DFF8100800683B
S11305B002F011FBE4B2012C0CD00EE00098C068EC
S11305C00D300078400705D42B003200009900203C
S11305D001F02FFF009802F079FCF1BD10B5040082
S11305E000293AD0002A38D0002B36D0D868438866
S11305F0538000884880100002F0A7F800282CD00F
S11306008169E4B2002C0CD0641E0DD0641E10D09D
S1130610641E012C17D9A41E012C0AD9241F0DD045
S11306201BE0888F086318E07FF0070180F8A110B1
S113063013E07FF0170180F8A1100EE07FF00801AD
S113064080F8A11009E0017B042905D07FF0110195
S113065080F8A11002F003F9FFE710BD10B5040003
S1130660882002F066FE002807D17FF002012000F6
S113067002F0DDFF5FF0FF3029E0A0610020C4F844
S11306808C00012084F89C004FF46150C4F8900061
S11306909620C4F894000820C4F89800002084F838
S11306A0A800012084F8A900002084F8AA004020B2
S11306B084F88400002084F88500002084F88700F2
S11306C04FF40060A0644FF40060A063002010BDEC
S11306D038B50400A569207B00280AD1D5F8840028
S11306E050F00100C5F88400200002F0B8F80020A2
S11306F069E094F8AA00012812D1D4F8A4000028D3
S11307000ED102F041FAD5F8840050F00100C5F88A
S11307108400200001F026FF02F03CFA002052E0A1
S113072002F032FA207B03280CD0D5F8840050F074
S11307300100C5F88400200001F014FF02F02AFA39
S1130740002040E094F85000002806D1012084F8ED
S113075050000121200001F052F902F01BFA02F0CE
S113076013FAD5F8840050F00100C5F88400207B0A
S1130770002803D1200002F072F821E095F88000EF
S11307800A2816D094F8AA0001280DD1D4F8A400A0
S1130790002809D0D4F8A4100A2041434FF4FA7079
S11307A0B1FBF0F0E86601E03020E866012084F84F
S11307B04000606B002803D014F1340003F0C2FD44
S11307C002F0E8F9002032BD7FB504000E003000CD
S11307D003F044FF00280AD17FF00F06310049B22C
S11307E0200002F024FF5FF0FF3004B070BD010070
S11307F0300003F0ABFE002804D1300003F08BFE80
S1130800002802D07FF00E06E8E7A569200000F07A
S11308107EFA6A4601A9200001F05EFFDFF8D00BE2
S113082000682862DFF8C80B0068401C286114F1D6
S113083054003100182204F009FA02F0A5F99DF8D9
S1130840003001AA0221200001F08BFC06003000D8
S113085040B2002802D002F09DF9BFE7012085F8DC
S1130860800002202073DFF8880B006810F57A40BE
S1130870DFF87C1B0860A86C28671E20E86602F07D
S113088089F90020B1E738B505000024686A00281A
S113089015D002F079F96C6A00E024682068002819
S11308A0FBD1206B806A401E216B88622100206B83
S11308B0243002F0DFFE0020206302F06BF92000F8
S11308C032BD2DE9F04106000C009046B769C3F330
S11308D0400515F0010595F0010502F055F9706B1E
S11308E0404501D2D6F834802B00DBB242462100C9
S11308F016F1340003F092FD0400EDB2002D18D07F
S1130900386C20183864386CB98BB0EB410F0AD2BC
S1130910386CB968B0EB510F05D2B869002808D11A
S1130920386C002805D0307B032802D1300001F058
S113093050FD002C0FD1307B03280CD07FF0130422
S113094002F028F9210049B2300002F070FE5FF095
S1130950FF30BDE8F0810698002804D0182216F173
S1130960540103F0A5FE002C06D197F8840000077B
S113097002D57FF01904E3E702F00CF92000E8E760
S11309802DE9F84F06008A4615009B46B7695FF0CB
S113099000085FF00009DFF85C0A854209D37FF0A4
S11309A0050149B2300002F042FE5FF0FF30BDE8BD
S11309B0F28F307B032802D07FF01301F1E7002D82
S11309C056D002F0E1F8B06C746C041B02F09DFC8C
S11309D040F6CA01884201D2002402E0A04200D2BB
S11309E00400AC4206D2002C03D102F0D3F800205C
S11309F0DDE725005FEA4B7008D596F8A8000028CB
S1130A0004D15FF00109012086F8A800002C25D04C
S1130A10D7F8840050F08000C7F88400AC4200D3BB
S1130A202C00012221000AEB080002F0EAF905007B
S1130A30002D13D014EB0808290016F1440003F02C
S1130A4099FC002836D1B86A002813D1786F10F1C8
S1130A50010F03D1B86C3865386D78675FFA89F98E
S1130A60B9F1010F02D1002086F8A80002F092F833
S1130A7040469CE701240AE016F1440003F062FCBE
S1130A80D7F8840030F08000C7F884000024002CDC
S1130A90E4D0307B0328EFD10121300000F0AFFF18
S1130AA00028F4D1D7F8840030F08000C7F884001F
S1130AB00024ECE7280002F0F0F902F06BF80020C3
S1130AC075E738B504000D00207B032807D07FF0BC
S1130AD01301200002F0ABFD5FF0FF3021E002F0D3
S1130AE053F82800C0B280070AD594F850000028B3
S1130AF006D1012084F850000121200000F07FFF7E
S1130B00EDB2E8070AD594F84000002806D114F1A4
S1130B10340003F017FC012084F8400002F03AF896
S1130B20002032BD38B5049C062958D11100C9B241
S1130B300E3904D0891E02D0C91E02290AD8042CF9
S1130B4007D07FF0050149B202F071FD5FF0FF307C
S1130B5032BDFFE7D2B20E2A08D0102A31D0132AB0
S1130B6024D0142A17D0152A0BD035E0196800298F
S1130B7002D17FF00501E6E71968C0F88C10002067
S1130B80E6E71968002902D17FF00501DBE719685F
S1130B90C0F89810F3E71968002902D17FF0050125
S1130BA0D1E719684900C0F89410E8E719680029EA
S1130BB002D17FF00501C6E719684900C0F890101A
S1130BC0DDE71968002903D0012180F89C1002E0B8
S1130BD0002180F89C10D2E77FF00801B3E700946D
S1130BE0D2B204F0BAF8B3E738B5049C8569062993
S1130BF036D1D2B20E2A28D0102A18D0112A1AD0EF
S1130C00132A0FD0142A08D0152A22D1D0F898001C
S1130C10186004202060002026E0D0F894004008EA
S1130C201860F6E7D0F8900040081860F1E790F8F3
S1130C309C001860EDE795F88400000702D50120B8
S1130C40186001E000201860E3E7D0F88C00186019
S1130C50DFE77FF0080102F0EAFC5FF0FF3003E019
S1130C600094D2B204F0B1F832BD70B504000D00A6
S1130C70A669207B042818D101F086FF02E0E06910
S1130C8001F070FC216AA06A41188D4202D2206AE8
S1130C900028F4D1A06A854203D2606A01F062FCA4
S1130CA0F8E7E56201F076FF0DE0200000F02FF890
S1130CB00020E0650020A4F85600E562032086F8D1
S1130CC0800004202073002070BD38B501F05CFF63
S1130CD03948046802E0280001F0C1FD002C13D05B
S1130CE0A0692500246890F88410C907F3D4297BEF
S1130CF0042906D1E8690028F0D0E86901F032FC43
S1130D00F8E701F000FEE9E701F044FF31BD38B532
S1130D100400A5698821280003F04CFD4FF40670F7
S1130D20A887D4F88C00A883A06BA860A868DFF813
S1130D30C416884202D3DFF8B009A860A868A98B5A
S1130D40884205D2A868A88302E0A87F401CA8773F
S1130D504FF44051A87F8140A8688142F5D35FF0E9
S1130D60FF3028675FF0FF30E8665FF0FF306866A9
S1130D705FF0FF30E8675FF0FF3068675FF0FF30D7
S1130D80A8665FF0FF30A8670C20A8640C20E86414
S1130D90DFF85409A863606B002803D014F1340011
S1130DA003F0D0FA31BD00008F1C0000B0BA00205F
S1130DB03D1C0000B4BA0020B0080020A0BA0020F6
S1130DC02DE9F64F85B006009B46B7695FF0010830
S1130DD0002001900598C068001D006804F038F8F0
S1130DE081460598C0680C300078C0B200098000C4
S1130DF002900598C0680830006804F029F80400DF
S1130E005FF0000A0598C0680D30057815F03F05BD
S1130E1097F88000012801D0032800D19FE097F8BB
S1130E20800002280AD197F88100012806D1A8077A
S1130E3004D5786A401E814500F091807A6A19F1E0
S1130E40005119F1010001F078FD002848D00598FF
S1130E50426912EB09020298121A796A11F10051DF
S1130E60786A401C01F069FD00284CD0796A484634
S1130E7001F074FD81464A46029905A802F014F96E
S1130E80A80620D50598C0681230008880B203F007
S1130E90D7FF484511D30598C0681230008880B246
S1130EA003F0CEFFB0EB0909484680B203F0C8FF57
S1130EB00599C9681231088005E015F0DF05059829
S1130EC0C0680D300570D7F82490484603F0C0FF81
S1130ED00599C968091D0860019850F00200019045
S1130EE04A46796AB869411811F10051786ABB69B8
S1130EF01818401C01F021FD002809D0300001F031
S1130F0068FA012070E2300001F063FA01206BE21C
S1130F100598426912EB09020298121A796AB869B3
S1130F20411811F10051786ABB691818401C01F08E
S1130F3004FD002813D00598416911EB09010298BA
S1130F40091A786ABA69101801F008FD40420100D4
S1130F5005A802F040F8019850F002000190280022
S1130F60C0B210F0140014280FD197F880000128A3
S1130F700BD1386A844206D17FF0110086F8A100B3
S1130F80300001F06CFC01202EE268070FD597F8C1
S1130F908000012801D0032800D106E07FF0110071
S1130FA086F8A100300001F05AFC01201CE2A807D9
S1130FB01DD597F88000012804D00CD3032801D054
S1130FC001D308E031E097F88100012803D1786A61
S1130FD0401E814529D0069B5A46059916F1840086
S1130FE001F027FA300001F03AFC0120FCE197F807
S1130FF0800001280DD0032817D1E80606D5069BEA
S11310005A46059916F1840001F013FA5FF0010ABB
S11310100BE0E80606D5069B5A46059916F18400AE
S113102001F007FA5FF0010AFFE75046C0B2012859
S113103001D10120D8E1E8063AD597F88000401E96
S1131040012802D9801E12D01BE0386A844208D0DD
S1131050069B5A46059916F1840001F0EAF901202D
S1131060C2E15046C0B2012834D10120BCE1069B44
S11310705A46059916F1840001F0DBF95FF0010A84
S1131080EFE722003969F86801F057FC00280ED117
S11310902200396911F100513869401C01F04DFCFE
S11310A0002802D0300001F094F901209CE1D8E737
S11310B097F88000012804D00AD3032801D001D373
S11310C006E0CEE7300001F084F95FF0010AC8E7DA
S11310D0012089E1A80708D50598C0680E3000886A
S11310E080B203F0ADFEB8620BE00598C0680E3024
S11310F0008880B203F0A4FE80B297F83E108840C6
S1131100B862F86AB96A884201D2B86AF86297F894
S11311108000012818D0C0F05381032869D0C0F0A2
S1131120EB80052800F01A81C0F01181072800F037
S11311300E81C0F00C81092800F02281C0F02981C1
S11311400A2800F035813BE119F10109C7F8249020
S1131150E8062CD5FC600599300001F05CFA3000FB
S113116001F0E1FAB88F00280BD1069B5A46059985
S113117016F1840001F05DF9300001F070FB0120EC
S113118032E15FF0FF3038675FF0FF30F86630001F
S113119001F01FF9042087F880000320307396F8CB
S11311A0A900012824D1D6F89000B86620E0B86CD4
S11311B038670599300001F02EFA300001F0B3FAD7
S11311C0B88F00280BD1069B5A46059916F1840066
S11311D001F02FF9300001F042FB012004E102206C
S11311E087F88000012087F88100300001F0F1F8D1
S11311F0E6E0316AB06A4118F06A814209D31821E5
S113120016F1540003F0D6FA0020B8620020F86208
S1131210D6E0300002F05DFB0500182116F1540001
S113122003F0C8FA002D04D10020B8620020F8624F
S1131230C6E01822594615F16C0003F039FA8820EB
S113124002F077F80400002C07D1280002F063F8BC
S11312500020B8620020F862B2E0AC612800FFF719
S113126056FDB86AA062F86AE0620020B862002005
S1131270F8622900300001F0D1FA19F10109C4F82B
S113128024905B480068206259480068401C206133
S113129002202873032084F88100022084F880004F
S11312A00599280001F0B7F9280001F03CFAA08F55
S11312B000280AD1069B5A46059916F1840001F0CC
S11312C0B8F8280001F0CBFA7AE06A4603A92800AE
S11312D001F002FA9DF8003003AA1221280000F060
S11312E040FF4348006810F57A40414908601E20D9
S11312F0E066A06C206763E0042087F88000032088
S113130030735FF0FF30F8665FF0FF303867FC60E1
S113131097F88100032809D1300001F088FA01AA66
S11313200599300000F068F880460FE0A80706D45D
S113133001AA0599300000F05FF8804606E096F8AF
S1131340A900012802D1D6F89000B86638E001AAB5
S11313500599300000F050F8804631E001AA059963
S1131360300000F049F88046386AF968884206D1AE
S113137097F88000052802D1062087F880001FE036
S1131380386A844202D1300001F069FA5FF0010A40
S113139016E0386A84420AD10A2087F88000302097
S11313A0F8665FF0FF3038675FF0FF30B86607E03B
S11313B0069B5A46059916F1840001F03AF8FFE7B6
S11313C05FFA8AFABAF1010F01D101200CE096F814
S11313D04000002806D0706B002803D016F13400BA
S11313E002F0B0FF4046C0B207B0BDE8F08F000085
S11313F0AC0800200100FF0F2DE9F84F04000D0098
S11314009146A6690127E8680830006803F020FDCA
S11314108246E8680D3090F8008018F03F0894F890
S1131420A900012803D1D4F89000B06602E05FF06F
S1131430FF30B06699F80000400701D50120B0677D
S11314405FF0FF307066F06850454FD1306AF16844
S1131450884200F0DB80606C002800F0D780686967
S1131460E9680C310978C9B20909B0EB8100002898
S113147040F0CC8018F0030F40F0C880706C401C22
S11314807064706C032840F0C180706C401C706400
S1131490B06A316B884203D2B06A4008B06302E09C
S11314A0306B4008B063B06BB18FB0EB410F02D228
S11314B0B08F4000B063B06B3063D6F820A0F06802
S11314C03062B38F00220021200000F0CDFEC6F868
S11314D020A0D9F8000050F00100C9F800005FF026
S11314E0FF30F067022086F860008FE0002070640F
S11314F05146F06801F032FA8346606C584501D2D7
S1131500D4F844B0306B7849884229D2B06B316B3F
S1131510884204D2706B1BEB0000706314E0B06B64
S1131520316B1BEB010188420AD2716B306B41189D
S11315301BEB0101B06B091A7163B06B306303E0FC
S1131540306B1BEB00003063706B316B884207D348
S1131550716B306B091A7163306BB18F4018306353
S1131560594614F14C0001F036FD606CB0EB0B0BE6
S1131570C4F844B0C6F80CA0F268316A11F1005105
S1131580306A401C01F0D9F9002801D0F0683062BB
S1131590F268716911F10051706901F0CEF9002807
S11315A034D096F86000012830D1B06D00281AD0EC
S11315B0F06FB16DB0EBD100B16D4118B165B16D93
S11315C0012901DA0121B165002800D54042F16DFD
S11315D0B0EB9100F16D4018F065F06D01280ADA66
S11315E00120F06507E0F06F401CC000B065F06FAB
S11315F0401C4000F065002086F86000B06DF16D7D
S113160011EBD001B1645FF0FF30F06796F884000D
S113161000070AD44A462900200000F067F8002891
S113162001D1012710E000270EE0E8680C300078B3
S1131630C0B2000980006969884205D2D9F8000067
S113164050F00200C9F8000099F80000000702D425
S11316505FEA087002D5200000F0BBFED6F88410C3
S1131660C90911F00101200000F0C9F9002805D0D2
S1131670D9F8000050F00100C9F80000B06A002851
S11316800BD1606C002808D0706F10F1010F01D1EC
S1131690B06C3065306D706706E096F884004006E3
S11316A002D45FF0FF307067F068316A884203D17A
S11316B05FF0FF30306701E0B06C306799F80000EC
S11316C010F0090F02D03800C0B20BE099F8000006
S11316D0800705D5200000F07CFE3800C0B201E090
S11316E03800C0B2BDE8F28F0000FF0F2DE9F34FC0
S11316F081B00600D6F818800298C0680C300078D3
S1131700C0B2000984000298C0680D300578EDB2BB
S113171015F03F0502984069001B002804D115F01C
S1131720210F01D1002068E117000298C068001D54
S1131730006803F08DFBD8F82410884236D1D8F81D
S11317400400002832D1E80712D50298C068083096
S1131750006803F07DFB0100300000F01EFAD8F8A9
S11317602400401CC8F82400386850F00800386091
S1131770210002A801F02FFC0298002814D0D8F808
S11317802410029840694118C8F824100299F06B9B
S113179001F05CFDF063716B02984069411871635C
S11317A0386850F004003860012026E15FF0000939
S11317B0D8F80810D8F80420029840698218914299
S11317C009D20298C068001D006803F041FBD8F8F4
S11317D02410884252D1386850F0020038605FF01B
S11317E00109D8F8000000283ED00125D8F80000EF
S11317F00090002406E00298C8F8000000980299BE
S113180048600025002D32D00098C068001D006893
S113181003F01EFB82460298C068001D006803F0B6
S113182017FB83460298C068001D006803F010FB94
S113183052461BF1005B5946401C01F07EF800281B
S113184004D0002CD7D002986060D7E70098406895
S1131850002804D10298009948600025D2E7009C32
S1131860009840680090CDE70298C8F80000D8F8C6
S11318700410029840694118C8F804100298C0681E
S1131880001D006803F0E4FAD8F82410884240F000
S1131890B280D8F8244062E0D8F80000C068001D87
S11318A0006803F0D5FA210001F058F80500D8F8D3
S11318B00000C068001D006803F0CAFA0400D8F8EC
S11318C0000040690419D8F80000C0680C300078A2
S11318D0C0B20009B4EB8004D8F80410D8F80000B2
S11318E04069091AC8F80410D8F800000090D8F824
S11318F000004068C8F80000002000994860009883
S1131900C0680D300078C0070ED50098C068083054
S1131910006803F09DFA0100300000F03EF93868D9
S113192050F008003860641C0098C0680C300078DF
S1131930C0B2000915EB80052900684601F04BFB95
S11319400098002809D0716B0098406941187163B0
S11319500099F06B01F07AFCF063C8F82440D8F8E1
S11319600000002847D0D8F80000C068001D0068B7
S113197003F06EFA0500D8F80000C068001D006886
S113198003F066FA220015F10055290000F0D5FF96
S1131990002830D0D8F80000C068001D006803F0AB
S11319A057FAD8F8001049690818D8F80010C9681F
S11319B00C310978C9B20909B0EB8100020014F1B5
S11319C00051200000F0B9FF00287FF465AFD8F87B
S11319D000000090D8F800004068C8F80000D8F86B
S11319E00410D8F800004069091AC8F804100098D7
S11319F001F06CFAB3E74846C0B2BDE8FE8F2DE9AA
S1131A00F04706008A46B7695FF00008D7F88400FB
S1131A1030F04000C7F88400396AF86800F09EFF8F
S1131A20D7F82890B9EB0009B9F1000F0AD50221C3
S1131A3087F86010396A19EB0101396219EB00006B
S1131A405FF00009746C241A396B081AB98FB0FB63
S1131A50F1F0B98F4843484501DA8146FFE74C4528
S1131A6000DAA146B9F1010F1ADA96F850000028FD
S1131A7013D0002C11D197F8840040070DD4002313
S1131A8000221121300000F06CFB386F10F1010FBF
S1131A9001D1B86C38675FF001084046C0B27AE003
S1131AA00025B9F1010F4EDBB88F81450BDBBB8FED
S1131AB000220021300000F0D7FBB88FB9EB0009F9
S1131AC0B88F2D183BE0F86A4008484503DB97F8C7
S1131AD08400C00609D54B4600220021300000F0E6
S1131AE0C3FB19EB05094D4627E0F868396A8842BB
S1131AF003D096F89C0000281FD019EB0500A042E3
S1131B0009D14B4600220021300000F0ADFB19EB57
S1131B1005094D4611E0786F10F1010F03D0B86C40
S1131B20796F884203D2B86C3865386D7867D7F816
S1131B30840050F04000C7F884005FF0000950466C
S1131B40C0B20028ADD0002D23D097F86000002843
S1131B500DD097F86000022810D13A6A796911F122
S1131B6000517869401C00F0E8FE002806D0386A6D
S1131B7078610020F867012087F860005FF00108B1
S1131B805FF0FF307867386F10F1010F01D1B86C46
S1131B9038674046C0B2BDE8F08710B4826992F855
S1131BA080301B1F03D05B1E012B0DD929E00721B8
S1131BB082F8801001210173D2F8840050F00800EB
S1131BC0C2F8840010BC704792F88030052B06D10F
S1131BD0136A994203D0082082F88000ECE70A21B6
S1131BE082F88010D16E11F1010F02D0D16E00295C
S1131BF001D13021D1665FF0FF319166012101737B
S1131C00DAE7DFE710B401008A6990699368496BE9
S1131C10591A002900D5002188420CD20B1A948B42
S1131C20A34206D20B1A9268B3EB520F01D20028DA
S1131C3002D1080000E0080010BC704738B500F07D
S1131C40A3FFDFF86C0C04680AE0056800F037F8BD
S1131C5028000028F9D12568200000F030F82C0075
S1131C60002C09D0E06903E0056800F028F828009A
S1131C700028F9D1606AECE7DFF8380C006810F549
S1131C807A40DFF8301C086000F084FF31BD38B5BD
S1131C9000F07AFFDFF8180C056806E0200000F079
S1131CA096F82468002CF9D12D68002D04D0280062
S1131CB000F08DF86C6AF5E700F06CFF31BD38B5C3
S1131CC00400A569207B002800F08080686E10F174
S1131CD0010F15D0686E401E6866686E00280FD12B
S1131CE05FF0FF30686694F9A10010F1180F03D07B
S1131CF07FF0100084F8A100200000F0B0FD65E042
S1131D00E86E10F1010F2AD0E86E401EE866E86E16
S1131D10002824D15FF0FF30E86695F88400C007FE
S1131D200BD595F880000A2803D1200000F097FD18
S1131D3014E0200000F016FC10E094F9A10010F16A
S1131D40180F08D094F9A10010F1090F03D07FF007
S1131D50160084F8A100200000F081FD36E0286F11
S1131D6010F1010F0BD0286F401E2867286F002840
S1131D7005D15FF0FF302867200000F03AF8A86E24
S1131D8010F1010F0BD0A86E401EA866A86E0028A3
S1131D9005D15FF0FF30A866200000F0A4F8686F5A
S1131DA010F1010F0BD0686F401E6867686F002840
S1131DB005D15FF0FF306867200000F0E1F8E86FBC
S1131DC010F1010F02D0E86F401CE86731BD80B507
S1131DD08269017B00290BD0916F11F1010F07D0AB
S1131DE0916F491E9167916F002901D100F0F1FABA
S1131DF001BD3EB50500AC6994F88000012811D0FE
S1131E0002281FD1206A401E20626A4601A92800C8
S1131E1000F062FC9DF8003001AA1221280000F0B5
S1131E20A0F948E0206A401E20626A4601A9280001
S1131E3000F052FC9DF8003001AA0221280000F0B5
S1131E4090F938E0D4F8840030F00400C4F8840039
S1131E50606E10F1010F01D130206066E0682062ED
S1131E60A06A216B884203D2A06A4008A06302E002
S1131E70206B4008A063A06BA18FB0EB410F02D28E
S1131E80A08F4000A063A08F20635FF0FF30E06765
S1131E90022084F86000D4F8840050F01000C4F8E4
S1131EA0840000212800FFF7AAFDD4F8840030F054
S1131EB01000C4F88400606DE168884203D0A06C0F
S1131EC0E064E0686065E06C782809D0E06C40006C
S1131ED0792802D37820E06402E0E06C4000E064FA
S1131EE0E06C206737BDF8B594B00500AE690021F9
S1131EF0012000F0A3FE0400002C3FD02800FFF7CF
S1131F0081FE0700B07FC74015F1840000901822BD
S1131F1015F16C0101A802F0CBFB182215F1540154
S1131F2007A802F0C5FBF068401E0D90706A0E9081
S1131F3010208DF83C00ADF83E700020ADF8400054
S1131F400020119000208DF848001394684600F09A
S1131F504AF8D5F89400B066706E10F1010F07D0FE
S1131F60D5F89810D5F894004143706E814205D29B
S1131F70D5F89810D5F894004143716615B0F0BDBA
S1131F8010B58469A16A002911D10123002200211E
S1131F9000F06AF9206A401E2062206D782819D06A
S1131FA0206D4000792812D37820206512E0D4F8FF
S1131FB0841051F01001C4F884100021FFF71FFDB4
S1131FC0D4F8840030F01000C4F884000AE0206DD6
S1131FD040002065206D6067606E10F1010F01D133
S1131FE03020606610BDF8B586B005000027286A69
S1131FF003F089FB06000021142000F01FFE0400FA
S1132000002C08D1E86C002802D0E86C00F05EFFD8
S11320107FF00200A3E01421E06802F0CBFB686CBF
S113202000281AD095F84800002816D06A6C95F854
S11320304810200000F0B5FA0700380040B200282C
S11320400FD0200000F042FFE86C002802D0E86CBA
S113205000F03CFF380040B281E05020E1680C31D0
S11320600870E888E1680880E88BE168891C0880CA
S1132070686B02F0EDFEE168091D0860A86B02F0D0
S1132080E7FEE1680831086095F83C00E1680D312D
S11320900870E88F02F0D4FEE1680E310880E96C24
S11320A0200001F0D3F80400B5F8400002F0C8FEA7
S11320B0E168123108800020E1681031088062690B
S11320C092B24FF4C061200001F050FAE16810317F
S11320D00880E1681031A88B012827D128680028DE
S11320E003D0286890F8242000E000222868002803
S11320F002D02868037800E040232868002802D032
S11321002868407800E000200591D2B204920021B2
S113211003910294DBB20193C0B2009006236A6A71
S1132120E968300003F05BFD070016E0A88B022885
S113213013D12868002802D02868C07800E0002065
S113214002910194C0B20090062315F1240215F106
S11321500C01300004F0BCFE0700380040B207B0A8
S1132160F0BD2DE9F64F95B004000D009B4600200C
S11321705FF0000A0026A769D7F820902000FFF737
S113218041FDB861A8070CD519F10109B86943F2FA
S11321900101884202D34FF4405807E0D7F8188071
S11321A004E0D7F81880B87F38FA00F8E80716D5A5
S11321B019F1010997F88000042803D1052087F854
S11321C0800006E097F88000072802D1092087F8EC
S11321D08000D7F8840050F00400C7F88400E806B3
S11321E001D5D7F824A08DF800B0DDF858B014F16B
S11321F084000190182214F16C0102A802F058FA2C
S1132200182214F1540108A802F052FA386A0E9008
S1132210CDF83CA08DF84050ADF84280ADF8446054
S1132220CDF848B09DF800008DF84C0000201490C3
S11322305FF0FF30B86701A8FFF7D5FE0400002067
S11322403864C7F820903A6A396911F10051386945
S1132250401C00F072FB002801D0386A386120006D
S113226040B217B0BDE8F08F2DE9F34F95B00600EA
S113227017001C005FF000080025D6F81890D9F864
S113228020A05FF0000BD9F82010D9F80C0000F062
S113229065FB716C081A00900098A04200D2009C63
S11322A0F06D04F067F914F11401884201D20400BE
S11322B0143C5BF0100B0098A04203D1002C01D019
S11322C05BF0080B96F8500000281BD00098A04241
S11322D018D15BF0010B1AF1010A99F88000042867
S11322E003D1052089F8800006E099F880000728CA
S11322F002D1092089F88000D9F8840050F0040044
S1132300C9F884003000FFF77DFCC9F81800002CE0
S113231011D000232200716C0098091AF06C00F0AF
S1132320C7FC0500002D06D114EB0A04C9F82040AF
S11323307FF002004AE08DF80070169F16F18400C9
S11323400190182216F16C0102A802F0B1F91822CA
S113235016F1540108A802F0ABF9D9F820000E9048
S1132360D9F824000F908DF840B0D9F8180099F8E6
S11323701E10C840ADF84200ADF8448012979DF895
S113238000008DF84C0014955FF0FF30C9F8780018
S113239001A8FFF728FE05000020C9F8400014EB4F
S11323A00A04C9F82040D9F82020D9F8101011F1F6
S11323B00051D9F81000401C00F0BFFA002803D0E7
S11323C0D9F82000C9F81000280040B217B0BDE8C1
S11323D0F08F3EB50400A56995F88000022804D06A
S11323E0052812D0092810D019E0286A401E286256
S11323F06A4601A9200000F06FF99DF8003001AA97
S113240012212000FFF7ADFE0FE0286A401E28626B
S11324100023002211212000FFF7A3FE05E0002382
S1132420002210212000FFF79CFE5FF0FF30A86718
S113243037BDF8B594B004000F0015001E00F8680D
S11324400D300078C0060BD5F8680830006802F03B
S1132450FFFC0D9000200E9004208DF83C0021E03C
S113246000200D90F868001D006802F0F1FC796905
S11324700818F9680C310978C9B20909B0EB810070
S1132480F9680D310978C9B211F001010818F96829
S11324900D310978C9B2C1F3400108180E90142017
S11324A08DF83C0000941822290001A802F000F9DC
S11324B01822310007A802F0FBF80020ADF83E0016
S11324C00020ADF840000020119000208DF8480055
S11324D0002013906846FFF786FD15B0F0BD10B5D7
S11324E094B00400A169207B002839D091F88000C1
S11324F0012835D091F880000A2831D091F8800065
S1132500022807D100200D90486A0E9014208DF8FF
S11325103C0006E0C8680D9000200E9004208DF861
S11325203C0014F184000090182214F16C0101A8FD
S113253002F0BEF8182214F1540107A802F0B8F80A
S11325400020ADF83E000020ADF8400000201190BE
S113255000208DF84800002013906846FFF743FDE3
S113256014B010BD10B50400207B04280CD020004A
S1132570FFF7B5FF200000F072F910BDE069FFF726
S1132580AEFFE06900F06BF9E0690028F6D1606AFB
S11325900028EFD0606AFFF7A2FF606A00F05FF9DD
S11325A0F5E771B581B00D0016000021282000F078
S11325B045FB0400002C02D17FF002002AE0282110
S11325C0E06802F0F7F82100019800F03FFE019066
S11325D001980468002005E081190978E2688218EE
S11325E01170401CA842F7D315F0030F04D015F066
S11325F0FC052D1DEDB200E0EDB2283D290001A837
S113260000F0E9FC2069143080000199C9680C319C
S11326100870002076BD70B50C008569002C3DD093
S1132620142600E0761CE0680C300078C0B2000983
S1132630B6EB800F32D2E06830180078C0B20028C0
S11326402CD0E06830180078C0B20128EAD0701CA1
S1132650E1680C310978C9B20909B0EB810F1DD2C8
S1132660E0683018401C007856FA80F0401EE1689B
S11326700C310978C9B20909B0EB810F0ED2E068B8
S113268030180078C0B2022809D0032810D0E068BE
S11326903018401C007856FA80F6C4E770BDE06834
S11326A03018801C008880B202F0CAFBA887EEE7CD
S11326B0E0683018801C007885F83E0095F83E00EC
S11326C00D2802D30C2085F83E00D5F8840050F084
S11326D02000C5F88400DAE770B50C00150086699F
S11326E000212970B18B002907D1C06D03F046FA8F
S11326F0002802D080682838B083B08B50F0017075
S113270002F0A6FB297860502878001D2870B17F5C
S1132710694850EA012002F09BFB29786050287830
S1132720C01C287070BD806990F88410890609D493
S113273000218177816843F20102914202D34FF470
S113274040518160818F01637047F8B506000F0026
S1132750002500F019FA5648046810E0002D0DD148
S113276014F16C0001F000FF002806D1390014F1C7
S11327706C0001F01BFF002800D025002468002C09
S11327801DD0B4F86E0079888842F7D1207B0428E4
S1132790E4D0390014F16C0001F008FF0028EDD0FA
S11327A0207B0028EAD0310014F1540001F0FEFE31
S11327B00028E3D0B4F8560071888842DED1002C9A
S11327C028D1002D26D0EC6900E02468002C0BD021
S11327D0310014F1540001F0E9FE0028F5D0B4F8FA
S11327E0560071888842F0D1002C10D16C6A00E048
S11327F02468002C0BD0310014F1540001F0D6FEF3
S11328000028F5D0B4F8560071888842F0D1002C25
S113281000D12C0000F0BEF92000F2BD80B5026AA0
S1132820521C026208631C3000F012FF01BD38B56F
S11328300400256B286A401E2862A86A401CA8620E
S1132840210015F11C0000F015FF210015F12400F2
S113285000F0FEFE1948006800F0BDF931BD10B566
S11328600400206B00280AD0207B022803D120001A
S113287000F026F81AE0200000F02EF816E0A06917
S113288090F88410C90704D52100094800F04AF8DB
S11328900CE000F038F814F1440001F053FD00207E
S11328A02073182114F1540001F084FF10BD0000BE
S11328B0B0080020AC08002000000303A0BA0020E8
S11328C080B50100086B006A401E0A6B1062086B39
S11328D01C3000F027F801BD80B50100086B806A48
S11328E0401E0A6B9062086B243000F01BF801BD97
S11328F010B50400002C05D0200000F004F82000DE
S113290000F009FD10BD38B505002C6803E0200077
S1132910646800F0DBFA002CF9D100206860002024
S1132920286031BD38B504000D00A869FFF7E0FF49
S11329302900200000F0E3FE31BD0300012099428C
S113294005D39A4201D3914206D2002004E09A4270
S113295002D2914200D20020C0B27047814201D31A
S1132960081A00E0081A704780B50021414A116036
S113297005F0AAF840B202BD10B505F0CEF808E0A3
S11329803D48006804683C48006800F0C4FC3A48CC
S11329900460394800680028F2D110BD3548006849
S11329A07047344800686421B0FBF1F07047314847
S11329B000680A21484370472E480068401C2D498E
S11329C00860704780B500F001F801BD10B500F053
S11329D0DBF82948046811E026480168606800F0C3
S11329E043F8A168884208D3224800686060E06820
S11329F0002802D02069E16888472468002CEBD1C4
S1132A0000F0C8F810BD70B504000D0016000020D9
S1132A10002C0FD0290000290CD0142000F089FCD0
S1132A20002807D0144909680160134908608460CC
S1132A30C560066170BD80B5002814D00E490968D0
S1132A40884205D10C49096809680B4A116008E0FD
S1132A500949096800E009680A688242FBD10268F2
S1132A600A6000F058FC01BD814201D3081A00E05D
S1132A70081A704794BB002090BB002010B56C4925
S1132A800C6800E02468002C17D061688142F9D1F9
S1132A90A068002802D06069A1688847654800687A
S1132AA0002802D00120207407E000202074E06890
S1132AB0002802D06069E168884710BD38B5040079
S1132AC01D00049B200000F01EF8010049B20029FB
S1132AD003D12900200005F039F840B232BD38B5E1
S1132AE002000B0000245448056853480068401C49
S1132AF0514908600021280000F005F8002800D1A1
S1132B002C00200032BDF8B504000D0016001F0093
S1132B10182000F00EFC00280AD044608560C660CE
S1132B20434909680160476141490860002001E0A8
S1132B305FF0FF3040B2F2BD80B502003C4800684F
S1132B4000E0006800281ED041689142F9D138495C
S1132B500968884205D1364909680968344A116010
S1132B600FE03349096832490B6800E01B681968B3
S1132B70002906D0196849689142F7D11968096893
S1132B80196000F0C8FB01BD2A480068401C2949AF
S1132B900860704710B527480068012815D1002146
S1132BA0234804680CE0207C012808D1002020740C
S1132BB0E068002803D06069E1688847012124683F
S1132BC0002CF0D1C9B20029E9D11A480068401E8E
S1132BD01849086010BD38B5050015480468FFF7AA
S1132BE0D3FF00E02468002C17D06068A842F9D114
S1132BF0A068002802D06069A16888470D48006871
S1132C00012808D100202074E068002805D06069FC
S1132C10E168884701E001202074FFF7BBFF31BD64
S1132C200020044908600020014908607047000042
S1132C3024B3002020B300202002002070B5060039
S1132C400D001C2000F05AFB0400002C09D12800C0
S1132C50C0B2002805D005F043F81C2000F04EFB5C
S1132C600400002C01D1002021E0301D00F046FBBF
S1132C70002807D1EDB2002D04D005F031F8301D45
S1132C8000F03CFB002804D1200000F030FB0020C1
S1132C900DE0002121600021616001210160A0603C
S1132CA0001DE060266166610020A061200070BD07
S1132CB02DE9F84F8346884600245FF0000A584601
S1132CC001690C1900680028FAD1914619F1010F25
S1132CD018D1B4EB0804A1461D005E461C2000F088
S1132CE00DFB0400002C09D12800C0B2002805D037
S1132CF004F0F6FF1C2000F001FB0400002C09D1B5
S1132D0000207CE018EB0900844201D34445E3D25F
S1132D10002074E0270000206060C4F81490DBF801
S1132D201800A0613069804502D240460BE0366845
S1132D30306910EB0A0AD045F9D2306918EB000863
S1132D40B8EB0A084046B168A160F1680144E1604B
S1132D50A1680968491CA2681160D6F81080B9EB13
S1132D60080810EB0808B8F1010F02DAC4F8109053
S1132D7042E03169081A20611C2000F0BFFA20608B
S1132D802068002809D12800C0B2002805D004F02A
S1132D90A7FF1C2000F0B2FA20602068002819D098
S1132DA02468002060603668B068A060B069A061E3
S1132DB0A0680068401CA1680860F068E0603069A1
S1132DC0B8EB0008B8F1000F11D5306910EB08001A
S1132DD020610EE0380000F060F803E0056800F0C0
S1132DE086FA280021688842F8D1002007E030697B
S1132DF02061B8F1010FBFDA002020603800BDE87F
S1132E00F28F70B505000E001100C9B23000FFF753
S1132E1015FF0400002C04D032002900E06801F002
S1132E2047FC200070BDF8B5060014001D00002307
S1132E300027002C30D030000269D3180068002825
S1132E40FAD114F1010F05D11C00641A30698142D2
S1132E5007D20DE00819834201D38B42F6D21BE05E
S1132E6036683069C719B942FAD230690918C91BE2
S1132E703069401A844201D2270001E037697F1A81
S1132E80E41B3A00F0680144280001F011FC002121
S1132E903D443668002CEBD1F1BD38B50400002C5C
S1132EA012D0A0680068012803D1A06800F01FFABE
S1132EB004E0A0680068401EA1680860256820003E
S1132EC000F015FA280000E0002032BD38B50400F7
S1132ED011E0A0680068401EA168086007E025684A
S1132EE0A06800680128F4D1A06800F000FA20006E
S1132EF000F0FDF92C00002CF1D131BD2DE9F8438F
S1132F0080460E00D8F800500021002D07D0002E76
S1132F1005D02869B04202D26869B04201D20020CB
S1132F2057E02C00206941182468B14201D2002CDA
S1132F30F8D1301D00F0E2F90700002F02D15FF054
S1132F40FF3046E0012038602A69E968381D01F045
S1132F50AFFBD5F81090A8680068012803D1A868D1
S1132F6000F0C5F904E0A8680068401EA96808607C
S1132F70AF60381DE8602F680EE03A69F968E868C8
S1132F80484401F095FBA74206D0386910EB0909C3
S1132F903800FFF782FF0700A742EED1B6EB090421
S1132FA02200F968E868484401F082FB3869001B94
S1132FB038613869002804D13800FFF76EFF070034
S1132FC002E0F8682044F8602F602E61C8F80050D1
S1132FD00020BDE8F2832DE9F04707000D00002D25
S1132FE060D0D7F800A03C68A046002C07D0012D83
S1132FF001DB280000E068426169814200D251E0AF
S1133000D4F810906669012D26DB0AE02068386048
S11330102000FFF742FF0400002C02D0206910EBCF
S11330200909002C01D04D45F0D2002C32D0E068C3
S113303021690844B5EB09010844E060B9EB0509CE
S1133040C4F81090DAF81800A06123E02468002C7A
S113305002D0206910EB0909002C02D0A81981457F
S1133060F4DB002C16D0206928183018B0EB0909BD
S1133070C4F8109003E02068FFF70FFF2060206879
S11330800028F8D12069002803D12000FFF705FFAC
S113309080464446002C04D0012D00DA6D42751B95
S11330A065613C60BDE8F0872DE9FC411500002D09
S11330B001D10020C8E0070038680090009800287B
S11330C005D00C00009840696119884201D20020A3
S11330D0BAE0002C07D129006846FFF77CFF00986E
S11330E038600098B0E0009E009A0098D0F81080F4
S11330F00EE044450FD30098006800900098002823
S113310006D00098006910EB0808444500D3009AE3
S113311000980028EDD10098002801D1002093E008
S113312000980069B8EB0000A0420BD170690099C7
S1133130486129001000FFF74EFF7069451B756157
S1133140386881E0B8EB0400854258D27069401BAE
S1133150706100988068006801281ED1B8EB0402F1
S1133160521B0098C068009909690844D8F100010D
S11331700844204400EB05010098C068009B1B69CB
S11331801844D8F100084044204401F091FA009812
S11331900069451B009805612FE00021B8EB04008D
S11331A0401BFFF74BFD0600002E08D13868009045
S11331B0009840692D1800984561002044E0B8EB60
S11331C00402521B0098C068009909690844D8F1A8
S11331D000010844204400EB0501F06801F068FA9E
S11331E00098006830600098066000980069B0EBB1
S11331F0080814EB080400980461386824E0B8EB6C
S11332000400A84209D100980069401B0099086194
S11332107069451B7561386816E000980069B0EB69
S113322008002018009908617069009909684861CC
S1133230B5EB080814EB080421000098FFF7CBFE57
S11332407069451B75613868BDE8F6810200002A83
S113325001D1080012E0002901D110000EE0100095
S113326000E012681368002BFBD1116083698A693E
S113327013438361426949698A184261704702684D
S1133280002A02D1016004E0526850680028FBD192
S11332905160704770B50500002D19D028680028CA
S11332A016D02C688C4206D166682000FFF70EFE0B
S11332B02E600DE06468002C02D060688842F9D169
S11332C0002C05D0606845686068FFF7FFFD656005
S11332D070BD80B5072204F01DFD28490860002850
S11332E001D0002001E05FF0FF3040B202BD80B5A4
S11332F001002248006804F036FD01BD80B50100DC
S11333001E48006804F071FD02BD80B51B480068CA
S113331004F0CEFD02BD80B501001848006804F039
S113332022FD01BD80B501001448006804F05DFD74
S113333002BD38B505002800FFF7F4FF0400002C97
S113334003D02900200001F035FA200032BD10B569
S113335004F0ABFE00F005F8040004F0ABFE20001E
S113336010BD80B50548006804F084FD02BD80B539
S11333700248006804F0F4FC01BD0000A8B8002075
S11333803FE0138810FA83F0921C138810FA83F03C
S1133390921C138810FA83F0921C138810FA83F09D
S11333A0921C138810FA83F0921C138810FA83F08D
S11333B0921C138810FA83F0921C138810FA83F07D
S11333C0921C138810FA83F0921C138810FA83F06D
S11333D0921C138810FA83F0921C138810FA83F05D
S11333E0921C138810FA83F0921C138810FA83F04D
S11333F0921C138810FA83F0921C138810FA83F03D
S1133400921C20390029BCD520310FE0138810FA12
S113341083F0921C138810FA83F0921C138810FA1C
S113342083F0921C138810FA83F0921C0839002947
S1133430ECD5083103E0138810FA83F0921C891E3E
S11334400029F8D5891C002904D0117801F0FF0166
S113345010FA81F070472DE9F0410C0000250600B8
S1133460F76801698C4201D2A04603E0D0F81080CD
S113347000E0A046002C22D0B4EB08043A004146F8
S11334802800FFF77DFF0500002CF3D03668F768AD
S11334905FEAC8700AD5387880B201F0D1FC7F1C8D
S11334A015FA80F5641E5FF0FF3801E05FF0000854
S11334B030698442DDD3306910EB0808DAE728006C
S11334C0BDE8F08180B5FFF7C6FF00F57F40FF300F
S11334D003E00100090C11FA80F00100090C002935
S11334E0F7D1C04380B202BD80B502000020FFF7CF
S11334F047FF00F57F40FF3003E00100090C11FA9B
S113350080F00100090C0029F7D1C04380B202BD4C
S11335102DE9F8430E0017009846089C099D020007
S1133520310089B20020FFF72BFF8146300080B2C2
S113353001F086FC10FA87F010EB090942462900D5
S11335404846FFF71DFF22002900FFF719FF01007D
S113355003E00800000C10FA81F10800000C0028B8
S1133560F7D1C943080080B2BDE8F28370B50C00FE
S11335701500290089B2FFF76EFF0600280080B20B
S113358001F05EFC10FA84F0861906F57F46FF36DA
S113359003E03000000C10FA86F63000000C00281E
S11335A0F7D1300080B270BD38B514001D00002280
S11335B080B20A002900FFF7E3FE22002900FFF78A
S11335C0DFFE00F57F40FF3003E00100090C11FA33
S11335D080F00100090C0029F7D1C04380B232BD4C
S11335E080B53021DFF8140401F0E4F800210FF273
S11335F02100FFF774FADFF808140860DFF800040C
S11336000068002802D15FF0FF3000E0002002BD16
S113361080B5DFF8F0030068002803D0DFF8E40386
S11336200068804701BDDFF8DC130860704780B58F
S113363090F9A120002A04D090F9A110002280F86A
S1133640A12080F8A010080040B204F04BFD01BD99
S113365038B504000D00FFF797FA20682860286841
S1133660002801D028684560002068602560FFF7C5
S113367091FA31BD38B504000D00FFF785FA68688A
S1133680002802D12868206002E028686968086080
S11336902868002802D0686829684860FFF77AFA29
S11336A031BD10B50024FFF76FFA002100E0491C7A
S11336B00C290FD2DFF8440350F821000028F6D17A
S11336C05FF0FF30DFF8342342F82100DFF82C03E9
S11336D000EB8104FFF75EFA200010BD01608860F2
S11336E0704700210160704701000020DFF8382A8C
S11336F01278002A02D0002900D00868704738B533
S113370004000D00FFF740FA29002000FFF7B2FF84
S113371015F1340000F016FE15F1440000F012FE1D
S11337202800FFF7F8FDFFF735FA31BDF8B50500BD
S11337300E0014001F0000E02D68002D30D0B5F8F5
S11337406E0071888842F7D1300000F00DFF002828
S113375003D03800C0B2002806D1310015F16C0046
S113376000F024FF0028E7D0002C03D13800C0B2B9
S1133770002806D1210015F1540000F017FF00289D
S1133780DAD0002C03D13800C0B2002806D1002CB6
S1133790D2D0B5F8560061888842CDD1012000E02E
S11337A00020F2BD2DE9F04705000E0017009846F1
S11337B05FF00009032400E02D68002D55D028692E
S11337C04045F9D1B5F86E0071888842F4D1286F6C
S11337D0002803D0286F71688842EDD15FF0000A99
S11337E015F16C0000F0C0FE00280FD1300000F08D
S11337F0BBFE002802D01AF1010A0EE0310015F1D7
S11338006C0000F0D3FE002807D1D5E7300000F0AB
S1133810ABFE002801D11AF1010A15F1540000F0A1
S1133820A3FE002814D1380000F09EFE002802D028
S11338301AF1010A13E0390015F1540000F0B6FE44
S1133840002804D0B5F856007988884207D0B3E739
S1133850380000F089FE002801D11AF1010AA245BE
S1133860AAD2A9465446002CA6D14846BDE8F08702
S113387038B586B00400DFF8C80A058818226846FF
S113388000F016FFFFF780F96D1C280080B2B0F538
S1133890404F05D3280080B24FF6FF71884201D112
S11338A04FF44045280080B201F0CAFAADF8020096
S11338B00123002269462000FFF738FF0028E3D1E6
S11338C0DFF87C0A0580FFF765F9BDF8020007B050
S11338D030BD38B50500B420FFF724FD0400002CEA
S11338E024D0B4222900200000F0E2FE0020206051
S11338F0002060600020A060002020730020A061F0
S1133900002020630020E0610020606200206063EA
S11339100020E063002060640020E064002084F85C
S1133920A000002084F8A100200000E0002032BDA7
S11339302DE9F04107000D009046002004F0B5FB8E
S1133940DFF8E4070078002802D17FF0180516E0BC
S1133950FFF7A7FE0400002C02D17FF001050EE062
S113396042462900C9B2380080B204F07EF905004D
S1133970002D0DD17FF009052000FFF7B2FE2800CD
S113398040B204F0AFFB04F095FB0020BDE8F081E9
S1133990B420FFF7CEFC0600002E02D17FF0020512
S11339A0EAE731002000FFF799FE7561A6F86C7014
S11339B000203073C6F810803069002801D1A8684F
S11339C03061A6F8547031002800FFF741FE286AE0
S11339D0406800280ED03000296A4968884710F1F1
S11339E0010F07D131007069FFF789FE04F076FBFF
S11339F00500C1E704F05EFB2000C7E76CBA0020B5
S1133A00A0BA00209CBA002070B58CB004000D0050
S1133A101600002004F049FB2000FFF765FE0400B7
S1133A20002C00F0B180207B042810D17FF00A061E
S1133A30310049B22000FFF7FAFD300040B204F033
S1133A4051FB04F037FB5FF0FF300CB070BD6069D0
S1133A50006A007800280BD0207B032802D17FF075
S1133A601206E5E7207B022802D17FF01506DFE786
S1133A703100280000F032FD0600300040B200287A
S1133A80D6D106A82900182201F0E0F806A800F013
S1133A906BFD002802D07FF00606C9E7BDF81A00C6
S1133AA0002806D160698079032802D07FF00E06D1
S1133AB0BEE7182214F16C01684600F0F9FDBDF868
S1133AC00010BDF818000140ADF80010684600F081
S1133AD04BFD002815D0079801F015FEBDF8001025
S1133AE0012902D0022923D032E0002807D1089806
S1133AF002F044F8002802D17FF00F0698E7C06A6C
S1133B000290BDF80200002806D169466069006889
S1133B10FFF7AEFEADF80200012306AA694660690C
S1133B200068FFF703FE002815D07FF00D067FE73D
S1133B3008A903F0F6F8002802D17FF00F0677E712
S1133B401022010002A800F0B3FD07980190D8E705
S1133B507FF00B066CE71822694614F16C0000F044
S1133B60A7FD6069006AC068002807D006A9200084
S1133B706269126AD2689047040000E0002404F0ED
S1133B8099FA200040B260E77FF01B0655E770B554
S1133B9004000D001600002004F087FA2000FFF74F
S1133BA0A3FD0400002C6CD03100280000F096FC2A
S1133BB0010049B2002909D0010049B22000FFF7F1
S1133BC036FD04F077FA5FF0FF3070BDB4F86E0094
S1133BD0002853D114F16C0000F0C6FC00284DD02D
S1133BE0280000F098FC002822D1280000F0BCFC3A
S1133BF000280ED1002114F16C0000F0A7FC00286D
S1133C0007D1280001F0A0F9002802D17FF00E00AE
S1133C10D2E7688800280BD00023002229006069BD
S1133C200068FFF783FD002802D07FF00D00C3E792
S1133C3014F16C01280000F0DEFC686820676888D5
S1133C4000280CD160698079032808D014F16C0134
S1133C5060690068FFF70CFEA4F86E0002E0688853
S1133C60A4F86E0014F1340000F06CFB14F144006D
S1133C7000F068FB04F01EFA0020A6E77FF00500C0
S1133C809AE77FF01B0004F02DFA9AE7F8B50600D6
S1133C90002704F00AFA3000FFF726FD0500002D86
S1133CA033D0002418E005EB8400D0F8AC000028E1
S1133CB005D005EB8400D0F8AC0002F009FC05EB5C
S1133CC08400D0F8B000002805D005EB8400D0F8BB
S1133CD0B00003F0DBFE641C002CE4D06869006AC9
S1133CE08068002805D028006969096A89688847BE
S1133CF00700380040B2002802D13000FFF7F1FC81
S1133D0004F0D8F9380040B208E07FF01B0040B25C
S1133D1004F0E8F904F0CEF95FF0FF30F2BD38B5F5
S1133D2005000C00002004F0C0F92800FFF7DCFCBB
S1133D3000282CD0017B022902D0017B032909D160
S1133D407FF0120149B2FFF772FC04F0B3F95FF09F
S1133D50FF3032BDB0F86E10002902D17FF00401AB
S1133D60F0E7416900290FD04169096A896A00298D
S1133D700AD021004269126A926A9047040004F052
S1133D8099F9200040B2E4E77FF00A01DAE77FF016
S1133D901B0004F0A7F9D8E72DE9F04106000C0058
S1133DA0150004F082F93000FFF79EFC0600002E97
S1133DB058D07069002852D07069006A00690028E0
S1133DC04DD0307B04280BD07FF00500010049B2B0
S1133DD03000FFF72CFC04F06DF90020BDE8F08101
S1133DE0002C0AD0002D08D0296816F16C0000F0D0
S1133DF075FB010049B20029E8D1FFF752FC070026
S1133E00002F29D0FEF7C0FE30007169096A0969E4
S1133E1088478046B8F1000F07D13800FFF761FCEE
S1133E20FEF7B8FE7FF00300D0E741463800FFF705
S1133E3055FC41467069FFF70BFCFEF7ABFE002C06
S1133E4006D0002D04D0210018F1540000F0EEFB40
S1133E5004F030F93800C1E77FF00100B6E77FF0E5
S1133E600A00B3E77FF01B0004F03CF9B3E72DE947
S1133E70FC4104000E0017009846002004F015F9D8
S1133E802000FFF731FC0400002C4AD0089D002DCF
S1133E9002D0099900291CD114F1540000F064FBEC
S1133EA000280CD07FF01300010049B22000FFF776
S1133EB0BEFB04F0FFF85FF0FF30BDE8F68100259B
S1133EC0002E2BD094F85000002811D07FF014005D
S1133ED0EAE7280000F002FB010049B20029E3D11F
S1133EE0280000F041FB0028EAD07FF00600DBE761
S1133EF06069006A806900280DD0009543463A0045
S1133F00310020006469246AA469A047040004F015
S1133F10D1F82000D1E77FF00A00C5E77FF0050063
S1133F20C2E77FF01B0004F0DDF8C2E71CB50024F3
S1133F30019400240094FFF79AFF16BD2DE9F8437D
S1133F4004000E0090469946002004F0AEF82000CC
S1133F50FFF7CAFB0700002F4AD0002E45D0B7F860
S1133F606E00002810D17869807903280CD07FF086
S1133F700400010049B23800FFF759FB04F09AF835
S1133F805FF0FF30BDE8F283099D089C002C0AD045
S1133F90002D08D0296817F16C0000F09FFA010089
S1133FA049B20029E5D197F84000002802D07FF0FB
S1133FB01400DEE77869006A4069002812D0002CFA
S1133FC001D0002D00D1002400944B46424631001C
S1133FD038007C69246A6469A047040004F06AF824
S1133FE02000CFE77FF00A00C3E77FF00500C0E7B9
S1133FF07FF01B0004F076F8C0E71CB500240194A0
S113400000240094FFF79AFF16BD2DE9FC41804679
S11340100E0017001C00002504F047F84046FFF787
S113402063FB00287AD0002C75D0089A002A72D03D
S1134030DFF8E0138E4221D04169002913D0416991
S1134040096A096A00290ED0009223003A00D2B20C
S113405031004469246A246AA047050004F02AF860
S1134060280040B208E07FF0050149B2FFF7DFFA0B
S113407004F020F85FF0FF30BDE8F6813900C9B2E2
S113408001291BD0022927D0032904D0052931D0C6
S113409006292FD03CE0042A02D27FF00501E4E790
S11340A0628864214A43C0F8A4202178002901D001
S11340B0012100E0002180F8AA10CFE7042A02D2EF
S11340C07FF00501D1E72168002901D0012100E03A
S11340D0002180F8A910C1E7042A02D27FF005016B
S11340E0C3E72168002901D0012100E0002180F804
S11340F0A810B3E7042A02D27FF00501B5E7FFB2A6
S1134100052F02D12168816401E021688163A5E75C
S11341107FF00801A9E77FF00501A6E77FF01B0007
S113412003F0E0FFA4E7000070BF00202DE9FC418C
S113413080460E0017001C00002503F0B6FF404621
S1134140FFF7D2FA002800F0F680002C00F0F0808F
S11341500899002900F0EC80AE4A964221D04269C9
S1134160002A13D04269126A526A002A0ED00091C2
S113417023003A00D2B231004469246A646AA04739
S1134180050003F097FF280040B208E07FF0050126
S113419049B2FFF74CFA03F08DFF5FF0FF30BDE842
S11341A0F6813A00D2B2002A4BD0012A31D0022A39
S11341B03BD0032A15D0052A54D0062A52D0072A08
S11341C061D0082A7BD0092A00F088800A2A65D0A9
S11341D00B2A63D00C2A00F092800D2A00F09A80FA
S11341E0A3E00A68042A02D27FF00501D0E7042282
S11341F00A6090F8AA102170D0F8A4200A214A433A
S11342004FF47A71B2FBF1F161806188C0F8A410B7
S1134210B7E70A68042A02D27FF00501B8E704224E
S11342200A6090F8A9002060ABE70A68042A02D269
S11342307FF00501ACE704220A6090F8A800206032
S11342409FE70A68042A02D27FF00501A0E704224E
S11342500A60007B042801D1012000E00020C0B2E4
S113426020608EE70A68042A02D27FF005018FE7F6
S113427004220A60FFB2052F02D1806C206001E0A5
S1134280806B20607DE70A68002A02D17FF0050177
S11342907EE701220A60007B207072E70A68042A24
S11342A002D27FF0050173E704220A60FFB20A2FED
S11342B002D1406B206001E0406C206061E70A6835
S11342C0002A02D17FF0050162E701220A6090F81A
S11342D0A0102170002180F8A01052E70A68002A7B
S11342E002D17FF0050153E701220A6041690029E8
S11342F002D04069807900E00020207041E70A681C
S1134300042A02D27FF0050142E704220A60C06A4F
S1134310206036E70A68042A02D27FF0050137E7F5
S113432004220A60806A20602BE77FF008012FE7EF
S11343307FF005012CE77FF01B0003F0D3FE2AE792
S11343400009002038B50400FEF71EFC002C0ED036
S1134350A06800280BD0A06803E04568FEF7B6FD0E
S113436028000028F9D10020A06000202060FEF77A
S113437011FC31BD38B504000D00FEF705FC616881
S11343806A6920688218914204D2FEF703FC5FF048
S1134390FF300BE02900A068FEF758FFA0602168F9
S11343A0686941182160FEF7F5FB002032BDF8B5BD
S11343B005000E001700FEF7E7FB696872692868BC
S11343C08218914204D2FEF7E5FB5FF0FF30F2BDA4
S11343D000211820FEF732FC0400002CF3D0E06822
S11343E01822390000F064F92968706941182960BD
S11343F031002000FEF72AFF010015F10800FEF746
S11344003EFFFEF7C7FB04480068FEF7E4FB00200C
S1134410DDE7000017E50300A0BA002070B5040032
S113442015001E00A06800281BD0A0684069A8429F
S113443001D2A06845690B002A000021A068FEF79C
S1134440F2FCF6B2012E0DD1FEF79EFB290014F109
S11344500800FEF7C0FD2068401B2060FEF79AFBB1
S113446000E00025280070BD2DE9F041060017008A
S11344709846B568002D2DD02C68002C0AD06069B0
S1134480B84200D267690B003A0000212000FEF711
S1134490CAFC00E000271822E968404600F008F949
S11344A068691838874201D25FF0FF370698C0B2B6
S11344B0002810D0FEF768FB002C03D03168606937
S11344C0091A3160290016F10800FEF7E3FEFEF731
S11344D061FB00E000273800BDE8F0810200002005
S11344E0002A14D0002912D013789B0704D5182968
S11344F00FD27FF005000CE01278D20704D50C2906
S113450007D27FF0050004E07FF00B0001E07FF0AC
S1134510050040B2704701000020002914D00A7839
S1134520920706D5087AFF2801D101200CE000206B
S11345300AE00A78D20707D5087A10F0F000E028DC
S113454001D1012000E00020C0B2704780B50022F4
S1134550002806D00378DB0703D5806801F0C6FF86
S113456002001000C0B202BD0100012000291BD0CE
S11345700A7892070FD5886800280AD1C8680028ED
S113458007D10869002804D14869002801D1012015
S11345900AE0002008E00A78D20705D588680028D8
S11345A001D1012000E00020C0B2704710B5002204
S11345B000281DD000291BD003880C88A34217D1E2
S11345C003789B070AD510220831083000F0FAF866
S11345D0002801D101220BE0002209E00378DB0767
S11345E006D580688968884201D1012200E0002252
S11345F01000C0B210BD80B50B00002815D0002BF0
S113460013D01988028891420FD10178890707D500
S1134610102210F1080113F1080000F049F804E039
S11346200178C90701D58068986001BD80B50B0089
S1134630002812D0002B10D00178890705D5182244
S11346400100180000F034F807E00178C90704D528
S11346500C220100180000F02BF801BD38B505004C
S11346600024002D21D02888012802D002280BD054
S11346701BE0686801F047F80400002C03D1A86827
S113468001F07CFA040010E0686801F03CF80400D2
S1134690002C09D115F10801002002F042FB00288A
S11346A002D001F0EEF80400FFE7200032BD3F0025
S11346B010B40300042A5FD30800C00704D50878A7
S11346C01870491C5B1C521E0800800704D508881A
S11346D01880891C9B1C921E1000800940E00C6805
S11346E01C60091D1B1D0C681C60091D1B1D0C682A
S11346F01C60091D1B1D0C681C60091D1B1D0C681A
S11347001C60091D1B1D0C681C60091D1B1D0C6809
S11347101C60091D1B1D0C681C60091D1B1D0C68F9
S11347201C60091D1B1D0C681C60091D1B1D0C68E9
S11347301C60091D1B1D0C681C60091D1B1D0C68D9
S11347401C60091D1B1D0C681C60091D1B1D0C68C9
S11347501C60091D1B1D0C681C60091D1B1D401ECF
S11347600028BCD1C2F3830004E00C681C60091D5E
S11347701B1D401E0028F8D1900703D50888188017
S1134780891C9B1CD00701D50878187010BC704791
S113479010B50400490849002000FFF789FF54F0D0
S11347A00104200010BD02E00170401C521E002ACA
S11347B0FAD1704703E000220270401C491E002910
S11347C0F9D1704710B400E0521E002A09D003004A
S11347D0581C0C00611C1B782478A342F4D00120DF
S11347E000E0002010BC704701E0401C491C0A781E
S11347F0002A03D002780B789A42F6D00078097820
S1134800401A704702000020002A06D000E0401C35
S113481011004A1C09780029F9D1704703000020CF
S1134820002B08D000E0401C1A00531C1278002A08
S113483001D08142F7D1704770B5050014000E0015
S1134840002D15D0002913D0002C11D02800FFF71B
S1134850D9FF05EB000104E030780870761C491C90
S1134860641E3078002801D0002CF5D10020087097
S113487070BD0A0000280BD0002909D003E011788C
S11348800170521C401C11780029F8D100210170DC
S113489070470B00002811D000290FD0002A04D142
S11348A00CE0197801705B1C401C1978002903D0B6
S11348B011004A1E0029F4D100210170704710B480
S11348C0020000201478531C07E00A00E4B2D2B2BC
S11348D0944200D1581E1C785B1C2200D2B2002ADC
S11348E0F3D1002805D1C9B2002901D0002000E08D
S11348F0581E10BC70470378421C01E01378521C08
S11349001800C0B2002806D00800DBB2C0B283424F
S1134910F4D1501E05E0C9B2002901D0002000E006
S1134920501E7047F0B40200002905D00B784C1CCF
S11349301900C9B2002900D123E01178551C01E007
S113494029786D1C0800C0B2002819D01800C9B21B
S1134950C0B28142F4D12E0027003178761C3A7817
S11349607F1C8C4610005FFA8CFCC0B2844502D1D7
S1134970C9B20029F1D1D2B2002AE1D1681E00E007
S11349800020F0BC704770B40400521C521E002A70
S11349900CD02078641C0D78491C06002B00F6B25C
S11349A0DBB29E4205D1C0B20028EFD1002070BC1A
S11349B07047C0B2EDB2401BF9E7F0B40024002503
S11349C00026002803D0012A01D0252A04D3002977
S11349D000D00860002079E0070000E07F1C3B78ED
S11349E0202BFBD03B78092BF8D03B782D2B0ED015
S11349F0302B0FD17B78782B02D07B78582B05D1C4
S1134A00002A01D0102A01D11022BF1C02E0012685
S1134A107F1CFFE7002A00D10A220EE05FFA8CFC1B
S1134A2002FB04C408E03300DBB2002BF6D054438D
S1134A3023006446E4B21C1B7F1C2B00DBB2002B5A
S1134A4038D197F800C06346DBB2002B32D03B78F4
S1134A50202B2FD03B78092B2CD06346DBB2303B84
S1134A600A2B0BD36346DBB2413B1A2B06D36346B6
S1134A70DBB2613B1A2B01D30125DDE76346DBB2D0
S1134A80303B0A2B02D2BCF1300C0DE06346DBB2A2
S1134A90413B1A2B04D25FFA8CFCBCF1370C03E0C7
S1134AA05FFA8CFCBCF1570C6346DBB29342BAD379
S1134AB00125C1E7002900D00F60EDB2002D04D01C
S1134AC0002900D00860002000E02000F0BC7047FE
S1134AD00100C9B241391A2902D22030C0B200E023
S1134AE0C0B2704770B505000E002878FFF7F0FFDC
S1134AF004006D1C3078FFF7EBFF761C21000200E8
S1134B00C9B2D2B2914209D32100C0B2C9B288421B
S1134B1007D3E4B2002CE8D1002070BD5FF0FF3071
S1134B20FBE70120F9E710B4030000E05B1C1878F0
S1134B302028FBD018781400E4B2A04201D15B1CF9
S1134B40F8E7087800280AD018780C78A04206D133
S1134B505B1C491C18781400E4B2A042F1D1187807
S1134B60D2B2904201D1002002E01A780878101ADB
S1134B7010BC7047F0B40300002B0AD11368002B5B
S1134B8007D10020F0BC70472000C0B2F6B2B0429A
S1134B9002D11C785B1C0D002E786D1C3000C0B255
S1134BA00028F1D1E4B2002C03D1002010600020D1
S1134BB0E8E75C1E1D785B1C0E003078761C07004D
S1134BC0AC46FFB25FFA8CFC674503D0C0B2002844
S1134BD0F3D1EFE7EDB2002D01D1002302E0002074
S1134BE003F8010C13602000CCE7F8B544F2A716D3
S1134BF000277FF0004200230B4804680025A6FB31
S1134C00040106FB051107FB041103F071FA0648C1
S1134C10026005480068F2BD03490968401802496A
S1134C200860704700000000ACBA002062B38B0734
S1134C3008D0521E11F8013B00F8013B00F024801B
S1134C408B07F6D1830740F0208000BF103A07D3CA
S1134C5030B4B1E83810103AA0E83810F9D230BCBA
S1134C60530724BFB1E80810A0E8081044BF51F866
S1134C70043B40F8043BD20724BF31F8022B20F850
S1134C80022B44BF0B7803707047121F17D35B00CD
S1134C9009D151F8043B20F8023B1B0C121F20F8E9
S1134CA0023BF6D20BE051F8043B00F8013B1B0A2F
S1134CB020F8023B1B0C121F00F8013BF3D238BF53
S1134CC0121D521E24BF11F8013B00F8013BF8D815
S1134CD0704770B504000E001500FDF755FF6969B3
S1134CE06068411841F20140814204D3FDF752FF4C
S1134CF05FF0FF3070BD00210420FDF79FFF002806
S1134D00F4D0C660626869698A1862602900FEF797
S1134D109DFA01002000FEF7B2FAFDF73BFF0020E8
S1134D20E8E770B506003468002C13D02568E06805
S1134D300860FDF729FF002D03D071686869091A1E
S1134D4071600020206021003000FEF7A3FAFDF717
S1134D5021FF00E00025280070BD38B504001000D4
S1134D601A00002A27D0049B002B24D000290DD13F
S1134D7065692D79ED0709D50100C9B2200001F05C
S1134D8033FC010049B2002913D016E029290DD1C2
S1134D9061690979890709D50100C9B2200002F0C7
S1134DA027FD010049B2002903D006E07FF0050089
S1134DB003E0002008E07FF0050084F8A00040B282
S1134DC003F090F95FF0FF3032BD38B505001000F4
S1134DD01A00002A2AD0049B002B27D01C68002C20
S1134DE024D000290DD16C692479E40709D5010088
S1134DF0C9B2280001F0C4FB010049B2002913D054
S1134E0016E029290DD169690979890709D50100B5
S1134E10C9B2280002F0C6FC010049B2002903D03F
S1134E2006E07FF0050003E0002008E07FF00500C5
S1134E3085F8A00040B203F055F95FF0FF3032BDB1
S1134E400100080080B2000A50EA012080B27047D5
S1134E500100080210F47F0050EA01600A00120AFF
S1134E6012F47F42104350EA1160704710B50020DD
S1134E7000F0E2FBDFF8340A046803E0200000F0ED
S1134E801EF96469002CF9D10020DFF8241A0860A7
S1134E900020DFF8181A086010BD10B5FDF774FE85
S1134EA0DFF8080A046808E020698069002803D054
S1134EB020002169896988476469002CF4D1FDF7D1
S1134EC069FE10BD70B50500002603F0EEF8002D54
S1134ED00ED0DFF8D809046800E06469002C07D01C
S1134EE0082221002800FFF74EFD0028F5D12600F6
S1134EF003F0E0F8300070BD10B5040003F0D5F8FD
S1134F00200000F005F8040003F0D4F8200010BDE0
S1134F1001000020DFF89429126801E05269491E5B
S1134F20002A02D00029F9D11000704702000020A5
S1134F30DFF87819096800E04969002903D0CB6AD1
S1134F409A42F9D10800704780B5002100280FD09B
S1134F500288012A02D0022A05D009E08068FFF7FE
S1134F60E5FF010004E0083000F08BFC0100FFE7DE
S1134F70080002BD10B50400C4F87811FDF717FD50
S1134F80C4F87C0110BD10B50400FDF710FD01004C
S1134F90D4F87C01FDF768FDDFF89C1A884203D33E
S1134FA0A1682000FFF7E6FF10BD10B50400A1685A
S1134FB02000FFF7DFFF2200DFF8801A41F2707053
S1134FC0FDF721FDC4F8800110BD10B50400D4F82C
S1134FD08001FDF730FD0020C4F8780110BD70B5E4
S1134FE004000D00160003F060F8320029002000D0
S1134FF000F006F8040003F05DF8200040B270BD34
S1135000F8B504000D0016005FF0FF37002C53D0F4
S11350102069002850D0200000F07FF800284BD1F0
S1135020FDF7B2FDDFF8840800686061606900285C
S113503001D0606984610020A061DFF87008046019
S1135040200000F034FB00202062206980680028E2
S113505020D020002169896888470700380040B2C1
S1135060002817D1002D07D0002E05D032002900CA
S1135070200000F037FA0700380040B2002809D1B8
S113508020690078401E012804D8200003F049FA62
S11350900700FFE7380040B2002808D1DFF8100805
S11350A00068002806D1DFF80808046002E0200048
S11350B000F005F8FDF76EFD380040B2F2BD10B502
S11350C00400002C28D0200000F027F8012823D168
S11350D02069C068002803D020002169C968884776
S11350E0A069002804D16069DFF8C017086002E0F5
S11350F06069A16948616069002802D0A06961699A
S11351008861DFF8AC070068A04205D1DFF89C078E
S11351100068DFF89C17086010BD02000020DFF86B
S11351208C17096800E04969002902D09142FAD13C
S11351300120C0B2704710B5040002F0B6FFDFF8DA
S11351407007046002F0B6FF10BD70B504000D00D6
S1135150160002F0AAFF32002900200000F003F834
S113516002F0A8FF70BD70B504000E001500002CFD
S11351705ED0FDF709FDE662002084F850000020AF
S113518084F85400002E3FD0002D3DD194F82C001B
S1135190000607D4E06B002801D1FF20E063FF2064
S11351A060631EE094F82C0010F0C000802809D140
S11351B0E06B002802D14FF6FF70E0634FF6FF70FA
S11351C060630EE094F82C0010F0E000C02808D1D1
S11351D0E06B002802D17FF07F40E0637FF07F40E6
S11351E06063E16A606B01402163E16AE06B014046
S11351F0A163E16A606B71EA00012164E16AE06B1A
S113520071EA0001616409E0E563E16AE06B014071
S1135210A163E16AE06B71EA00016164206940699D
S1135220002803D02000216949698847FDF7B2FCB2
S113523070BD38B504000D00002C04D002F035FF19
S1135240A56402F037FF31BD38B504000D00002C11
S113525004D002F02AFFE56402F02CFF31BD10B542
S113526002F023FF00F005F8040002F023FF200001
S113527010BDDFF83C060068704738B5040000250F
S1135280002C04D002F011FFE56A02F013FF28009D
S113529032BD38B504000025002C04D002F005FF0F
S11352A0E56B02F007FF280032BD38B50400002585
S11352B0002C04D002F0F9FEA56C02F0FBFE2800DD
S11352C032BD38B504000025002C04D002F0EDFEF8
S11352D0E56C02F0EFFE280032BDF8B505000E00C3
S11352E014000027002D0BD0002C09D002F0DDFEA5
S11352F022003100280004F0AAFD070002F0DAFEC3
S11353003800C0B2F2BD2DE9F04106000C001500D2
S11353100027002E2FD0002D2DD002F0C6FEFDF761
S113532033FCD6F87461002E21D05FF0000802E04F
S1135330641E18F10108B8F1050F18D25FEA48108D
S1135340304490F828020028F3D0002CF0D1102229
S11353505FEA4810304410F505712800FFF7A8F9FA
S11353605FEA48103044D0F8240228610127FDF791
S113537011FC02F09FFE3800C0B2BDE8F0812DE9B7
S1135380F84307000C0016005FF00009002F43D01B
S1135390002E41D002F089FEFDF7F6FBD7F87451D8
S11353A0002D35D05FF0000802E0641E18F10108FA
S11353B0B8F1070F2CD24C2000FB08F0284490F8D9
S11353C020000028F2D0002CEFD110224C2000FB4A
S11353D008F005EB00013000FFF76AF9386942680C
S11353E04C2000FB08F0284410F1100116F11000C5
S11353F0FFF75EF93869406830624C2000FB08F81A
S113540005EB080090F8440086F824005FF00109D9
S1135410FDF7C0FB02F04EFE4846C0B2BDE8F28381
S113542080B50B00002805D0002B03D00100180024
S1135430FFF72FFA01BD38B504000025002C05D074
S113544002F033FE94F8505002F034FE2800C0B24B
S113545032BD38B504000D00002C05D002F025FE45
S113546084F8505002F026FE31BD70B504000D00E2
S1135470160002F01AFE32002900200000F006F89F
S1135480040002F017FE200040B270BD10B55FF0BA
S1135490FF33002812D0002910D0002A0ED004694E
S11354A0002C0BD004696468A24207D30269D26954
S11354B0002A03D00269D26990470300180040B261
S11354C010BD70B504000D00160002F0EEFD3200B0
S11354D02900200000F006F8040002F0EBFD200093
S11354E040B270BD70B505000C001600042E0BD33D
S11354F021786078000450EA0160A17850EA012024
S1135500E1780843FFF788FB002D12D0002C10D05F
S1135510286900280DD028694068864209D1286985
S1135520006A002805D0210028002A69126A9047E1
S113553001E05FF0FF3040B270BD80B5002806D0B6
S11355400269D26A002A02D00269D26A904701BD78
S113555080B5002806D00269126B002A02D00269C5
S1135560126B904701BD01000020002901D0086999
S11355700078C0B2704710B5040002F096FD200018
S113558000F006F8040002F095FD2000C0B210BD42
S1135590F8B504000126002C2DD02069406A0028AB
S11355A029D0FDF7FBF907003900A06AFDF75CFA82
S11355B015281ED394F8245020002169496A88478D
S11355C0060084F82460A76230002900C0B2C9B282
S11355D0884210D0EDB2002D0DD120694069002819
S11355E003D02000216949698847200004F0EDFABE
S11355F001E094F824603000C0B2F2BD70B505003B
S11356000C005FF0FF36002D13D0002C11D0286958
S1135610806A00280DD002F048FDFDF7B5FA21009C
S113562028002A69926A90470600FDF7B3FA02F04F
S113563041FD300040B270BD10B5040002F035FDEC
S1135640FDF7A2FADFF8F8030460FDF7A3FA02F00D
S113565031FD10BD38B504000025002C09D002F03E
S113566024FDFDF791FA94F85450FDF793FA02F0F3
S113567021FD2800C0B232BD10B50400002C0AD0B0
S113568002F013FDFDF780FA002084F85400FDF7C2
S113569081FA02F00FFD10BD80B5DFF8A41309688C
S11356A0002903D0DFF898130968884701BD10B4B6
S11356B0012200237D49096800E04969002904D0DA
S11356C0CC69A242F9D10123521CDBB2012BF0D0E8
S11356D0C26110BC704738B504000025002C04D00A
S11356E002F0E3FCE56902F0E5FC280032BD10B5E8
S11356F0040002F0DAFC200000F005F8040002F0D7
S1135700D9FC200010BD02000020002A09D06749FE
S1135710096800E04969002903D0CB699342F9D1B3
S1135720080070472DE9F04105000C0016005FF0F9
S11357300008002D33D0002E31D002F0B6FCFDF766
S113574023FA002701E0641E7F1C052F23D2382092
S113575000FB07F0284490F86C000028F4D0002CDB
S1135760F1D11022382000FB07F0284410F15C012D
S11357703000FEF79DFF382000FB07F0284490F826
S11357806C0030743820474305EB070090F86D0037
S113579070745FF00108FDF7FDF902F08BFC4046E0
S11357A0C0B2BDE8F08180B5002806D00269526B12
S11357B0002A02D00269526B904701BD80B50028CF
S11357C006D00269926B002A02D00269926B90475C
S11357D001BDF8B504000D000027002C20D0002DD9
S11357E01ED0002600E0761C052E19D2382000FBBE
S11357F006F0204490F86C000028F4D010223820E1
S113580000FB06F0204410F15C012800FEF7DAFFEB
S11358100028E8D13820464304EB060010F15C0769
S11358203800F2BD80B5FFF7D4FF002801D0012075
S113583000E00020C0B202BDF8B504000D0000264F
S1135840002C1BD0002D19D0002700E07F1C052F51
S113585014D2382000FB07F0204490F86C00002894
S1135860F4D01022382000FB07F0204410F16E0120
S11358702800FEF7A7FF0028E8D101263000C0B2B7
S1135880F2BD70B505000026002D0CD00748046851
S113589000E06469002C06D029002000FFF7C2FF55
S11358A00128F6D12600300070BD0000ACB80020FD
S11358B0B0B800207CB506000D000822694630000F
S11358C0FFF7E4FD0400200040B2002829D130692C
S11358D04068062802D0082816D020E00322694632
S11358E015F10800FEF7E4FEFF20E872FE2028739D
S11358F003220DF1030115F10D00FEF7D9FE287AFC
S113590090F0020028720CE00822694615F10800A4
S1135910FEF7CEFE287A90F00200287201E05FF0D4
S1135920FF34200040B276BD7CB504000D001600A3
S113593002F0BBFBFDF728F9402000905FF0FF3335
S11359403200D2B22900200000F008F80400FDF76C
S113595021F902F0AFFB200040B276BD2DE9F04101
S1135960040090461E005FF0FF370025002C5ED037
S113597000295CD00878FF2859D0002200E0521C8E
S1135980052A0DD2382000FB02F0204490F86C0068
S11359900028F4D13820424304EB020010F15C05E6
S11359A0002D44D010222800FEF782FE1022254943
S11359B02800FEF707FF002803D1FE20287080206E
S11359C0687085F811805FFA88F8B8F1010F0AD180
S11359D00698402806D129002000FFF76BFF10F13C
S11359E0010F00D123E029002000FFF7F2FE002878
S11359F001D000271BE0FCF7D4FF6862AE62D4F844
S1135A007401002810D00120287415F11201280017
S1135A1001F000FC15F11201200001F09DFF2900A6
S1135A20200004F01AF901E002202874002738004D
S1135A3040B2BDE8F0810000C1270900874F000093
S1135A40B4B800208401020038B504000D0002F04F
S1135A502CFBFDF799F829002000FFF7BAFE01009E
S1135A60200000F008F80400FDF794F802F022FB8F
S1135A70200040B232BD10B50C0000280CD0002C20
S1135A800AD0217C002907D014F1120101F0D2FFC1
S1135A9000202074002001E05FF0FF3040B210BD10
S1135AA038B5040000252DE0382000FB05F0204423
S1135AB090F86C00002824D0382000FB05F0204426
S1135AC0D0F8840010F1010F1BD0FCF76AFF01002D
S1135AD0382000FB05F02044D0F88000FCF7C4FF18
S1135AE0382101FB05F12144D1F88410814208D208
S1135AF0382000FB05F0204410F15C012000FFF782
S1135B00BAFF6D1C052DCFD331BD2F0010B55FF04A
S1135B10FF340020DFF8401A086000220FF6190154
S1135B203220FCF770FFDFF8341A0860DFF82C0A23
S1135B300068002812D07821DFF8240AFEF73AFE24
S1135B4000210FF21140FCF7CAFFDFF8181A0860B1
S1135B50DFF8100A0068002800D00024200040B2BA
S1135B6010BD80B500F000FCDFF8F0090068FCF718
S1135B7062FF0020DFF8E419086001BD70B505007C
S1135B800024FFF776FB0200DFF8DC09016800E07F
S1135B90496900290AD0C86B0028F9D0CB6B2B4087
S1135BA0CE6AC86B0640B342F2D10C00002C11D16E
S1135BB0002A04D0906C002801D014000AE0DFF819
S1135BC0A809016800E04969002903D0886C00280D
S1135BD0F9D00C00002C00D11400200070BD2DE978
S1135BE0F64F83B005009846002D0FD10498FFF7B7
S1135BF0C5FF0500002809D17FF00F041098FDF7B8
S1135C0065F9200040B205B0BDE8F08F0398002884
S1135C1001D1E86A039010984069143042F60101FA
S1135C20884202D37FF00704E8E701211420FDF73E
S1135C3005F80700002F02D17FF00204DEE7139C71
S1135C40002C06D0042304AA03A92088FDF7ACFC89
S1135C502080119C0E9ED7F80C9099F8000010F04B
S1135C600F0050F0400089F80000DFF800090088B8
S1135C70411CDFF8F828118080B2FFF7E1F8A9F899
S1135C80040089F80160109846691436B6B299F890
S1135C90000010F0F00050F0050089F8000000202A
S1135CA0A9F80600E4B2002C05D0B9F8060050F0BB
S1135CB04000A9F806000F9889F8080089F80980BF
S1135CC00398C9F80C000498C9F81000300080B299
S1135CD0FFF7B6F8A9F8020010993800FDF7B6FAF4
S1135CE01090A868B04280F0B48000241098001D81
S1135CF0019099F800805FEA880818F03C08AF68C2
S1135D00B7EB0807FF08FF00029799F80600400662
S1135D1001D4082F02D27FF007046FE7414610A890
S1135D20FDF7ECF810F1010F02D17FF0020465E7F2
S1135D301098C0680090DDF8409017EB080A13E053
S1135D4001001098FDF782FA10901098406980B213
S1135D50FFF776F8ABF802001098019908601098E4
S1135D60001D019017EB0A0AB2453CD200214046BF
S1135D70FCF764FF1090109800281FD04246009949
S1135D801098C068FEF794FC1098D0F80CB014205A
S1135D9080089BF8001060F303018BF80010BAEB45
S1135DA00800C00880B2FFF74BF8ABF8060017EB09
S1135DB00A00B04204D3B6EB0A0707E0641C2FE0E4
S1135DC0BBF8060050F02000ABF8060000233A00B0
S1135DD051464846FCF76CFF0028B1D1641C10986A
S1135DE0FDF774F81CE0CDF8409000984088FFF768
S1135DF027F8029911EB080880B2B8EB0008414675
S1135E0010A8FDF7E8F81098406980B2FFF718F879
S1135E10009948800098C08850F020000099C880FC
S1135E20CDF84090109800281AD0109846680020A9
S1135E3010994860002C03D01098FDF747F806E04D
S1135E409DF84830109A0499280000F00BF8109639
S1135E50E8E79DF84830109A0499280000F002F809
S1135E600020D0E62DE9F04105000E0017001C00CB
S1135E70D7F80C800020A8F80A0098F800108900D0
S1135E8011F03C013800FDF71DFBA8F80A002900B9
S1135E90300000F02BFB00280DD116F0F000E028B4
S1135EA009D0E4B2002C06D13100280000F00BF830
S1135EB0012800D0AE6C3A00310028002B691B6920
S1135EC09847BDE8F081C26B0A40C36AC06B0340C7
S1135ED09A4206D04FF6A96001404FF6A96081426C
S1135EE001D1012000E00020C0B27047F8B50600DF
S1135EF00C0017001D0018213800FEF75BFC012080
